{
  "contractName": "Contacts",
  "abi": [
    {
      "inputs": [
        {
          "internalType": "uint256",
          "name": "",
          "type": "uint256"
        }
      ],
      "name": "contacts",
      "outputs": [
        {
          "internalType": "uint256",
          "name": "id",
          "type": "uint256"
        },
        {
          "internalType": "string",
          "name": "userId",
          "type": "string"
        },
        {
          "internalType": "uint256",
          "name": "followers",
          "type": "uint256"
        },
        {
          "internalType": "uint256",
          "name": "likes",
          "type": "uint256"
        },
        {
          "internalType": "uint256",
          "name": "reward",
          "type": "uint256"
        }
      ],
      "stateMutability": "view",
      "type": "function",
      "constant": true
    },
    {
      "inputs": [],
      "name": "count",
      "outputs": [
        {
          "internalType": "uint256",
          "name": "",
          "type": "uint256"
        }
      ],
      "stateMutability": "view",
      "type": "function",
      "constant": true
    },
    {
      "inputs": [
        {
          "internalType": "uint256",
          "name": "id",
          "type": "uint256"
        },
        {
          "internalType": "string",
          "name": "user_id",
          "type": "string"
        },
        {
          "internalType": "uint256",
          "name": "_followers",
          "type": "uint256"
        },
        {
          "internalType": "uint256",
          "name": "_likes",
          "type": "uint256"
        },
        {
          "internalType": "uint256",
          "name": "_reward",
          "type": "uint256"
        }
      ],
      "name": "createContact",
      "outputs": [],
      "stateMutability": "nonpayable",
      "type": "function"
    },
    {
      "inputs": [
        {
          "internalType": "uint256",
          "name": "_id",
          "type": "uint256"
        }
      ],
      "name": "getTransaction",
      "outputs": [
        {
          "internalType": "uint256",
          "name": "",
          "type": "uint256"
        },
        {
          "internalType": "string",
          "name": "",
          "type": "string"
        },
        {
          "internalType": "uint256",
          "name": "",
          "type": "uint256"
        },
        {
          "internalType": "uint256",
          "name": "",
          "type": "uint256"
        },
        {
          "internalType": "uint256",
          "name": "",
          "type": "uint256"
        }
      ],
      "stateMutability": "view",
      "type": "function",
      "constant": true
    }
  ],
  "bytecode": "0x60806040526000805534801561001457600080fd5b506107eb806100246000396000f3fe608060405234801561001057600080fd5b506004361061004c5760003560e01c806306661abd1461005157806333ea3dc81461006f5780639aa5a31e146100a3578063e0f478cb146100bf575b600080fd5b6100596100f3565b604051610066919061040d565b60405180910390f35b61008960048036038101906100849190610468565b6100f9565b60405161009a95949392919061052e565b60405180910390f35b6100bd60048036038101906100b891906106bd565b61020a565b005b6100d960048036038101906100d49190610468565b610293565b6040516100ea95949392919061052e565b60405180910390f35b60005481565b60006060600080600080600160008881526020019081526020016000206040518060a00160405290816000820154815260200160018201805461013b90610783565b80601f016020809104026020016040519081016040528092919081815260200182805461016790610783565b80156101b45780601f10610189576101008083540402835291602001916101b4565b820191906000526020600020905b81548152906001019060200180831161019757829003601f168201915b505050505081526020016002820154815260200160038201548152602001600482015481525050905080600001518160200151826040015183606001518460800151955095509550955095505091939590929450565b6040518060a00160405280868152602001858152602001848152602001838152602001828152506001600087815260200190815260200160002060008201518160000155602082015181600101908051906020019061026a929190610351565b506040820151816002015560608201518160030155608082015181600401559050505050505050565b60016020528060005260406000206000915090508060000154908060010180546102bc90610783565b80601f01602080910402602001604051908101604052809291908181526020018280546102e890610783565b80156103355780601f1061030a57610100808354040283529160200191610335565b820191906000526020600020905b81548152906001019060200180831161031857829003601f168201915b5050505050908060020154908060030154908060040154905085565b82805461035d90610783565b90600052602060002090601f01602090048101928261037f57600085556103c6565b82601f1061039857805160ff19168380011785556103c6565b828001600101855582156103c6579182015b828111156103c55782518255916020019190600101906103aa565b5b5090506103d391906103d7565b5090565b5b808211156103f05760008160009055506001016103d8565b5090565b6000819050919050565b610407816103f4565b82525050565b600060208201905061042260008301846103fe565b92915050565b6000604051905090565b600080fd5b600080fd5b610445816103f4565b811461045057600080fd5b50565b6000813590506104628161043c565b92915050565b60006020828403121561047e5761047d610432565b5b600061048c84828501610453565b91505092915050565b600081519050919050565b600082825260208201905092915050565b60005b838110156104cf5780820151818401526020810190506104b4565b838111156104de576000848401525b50505050565b6000601f19601f8301169050919050565b600061050082610495565b61050a81856104a0565b935061051a8185602086016104b1565b610523816104e4565b840191505092915050565b600060a08201905061054360008301886103fe565b818103602083015261055581876104f5565b905061056460408301866103fe565b61057160608301856103fe565b61057e60808301846103fe565b9695505050505050565b600080fd5b600080fd5b7f4e487b7100000000000000000000000000000000000000000000000000000000600052604160045260246000fd5b6105ca826104e4565b810181811067ffffffffffffffff821117156105e9576105e8610592565b5b80604052505050565b60006105fc610428565b905061060882826105c1565b919050565b600067ffffffffffffffff82111561062857610627610592565b5b610631826104e4565b9050602081019050919050565b82818337600083830152505050565b600061066061065b8461060d565b6105f2565b90508281526020810184848401111561067c5761067b61058d565b5b61068784828561063e565b509392505050565b600082601f8301126106a4576106a3610588565b5b81356106b484826020860161064d565b91505092915050565b600080600080600060a086880312156106d9576106d8610432565b5b60006106e788828901610453565b955050602086013567ffffffffffffffff81111561070857610707610437565b5b6107148882890161068f565b945050604061072588828901610453565b935050606061073688828901610453565b925050608061074788828901610453565b9150509295509295909350565b7f4e487b7100000000000000000000000000000000000000000000000000000000600052602260045260246000fd5b6000600282049050600182168061079b57607f821691505b602082108114156107af576107ae610754565b5b5091905056fea264697066735822122027ba4fbb2535723cdc1a68470bc222b1623ea545c5f1e5991419157abfd65adc64736f6c634300080a0033",
  "immutableReferences": {},
  "source": "// SPDX-License-Identifier: MIT\r\npragma solidity ^0.8.0;\r\n\r\ncontract Contacts {\r\n    uint public count = 0; // state variable\r\n\r\n    struct Contact {\r\n        uint id;\r\n        string userId;\r\n        uint followers;\r\n        uint likes;\r\n        uint reward;\r\n    }\r\n\r\n    mapping(uint => Contact) public contacts;\r\n\r\n    function createContact(\r\n        uint id,\r\n        string memory user_id,\r\n        uint _followers,\r\n        uint _likes,\r\n        uint _reward\r\n    ) public {\r\n        contacts[id] = Contact(id, user_id, _followers, _likes, _reward);\r\n    }\r\n\r\n    function getTransaction(\r\n        uint _id\r\n    ) public view returns (uint, string memory, uint, uint, uint) {\r\n        Contact memory contact = contacts[_id];\r\n        return (contact.id, contact.userId, contact.followers, contact.likes, contact.reward );\r\n    }\r\n}\r\n",
  "sourcePath": "C:\\Users\\NOMAN SIAL\\Desktop\\FYP Account Verification\\blog backend\\blockchain_node_api\\contracts\\Contacts.sol",
  "compiler": {
    "name": "solc",
    "version": "0.8.10+commit.fc410830.Emscripten.clang"
  },
  "schemaVersion": "3.4.16",
  "updatedAt": "2024-05-12T15:55:49.097Z",
  "networkType": "ethereum",
  "devdoc": {
    "kind": "dev",
    "methods": {},
    "version": 1
  },
  "userdoc": {
    "kind": "user",
    "methods": {},
    "version": 1
  }
}